:100000000C9474000C949C000C949C000C949C0028
:100010000C949C000C949C000C949C000C949C00F0
:100020000C949C000C949C000C949C000C949C00E0
:100030000C949C000C949C000C949C000C949C00D0
:100040000C9445070C949C000C94B5070C948F07F6
:100050000C949C000C949C000C949C000C949C00B0
:100060000C94E7070C949C0057616974696E6720D3
:10007000666F722049442E2E0054656D7065726162
:1000800074757265205379730049443A00430054F3
:10009000454D503A00000000080002010000030432
:1000A00007000000000000000000000000250028FC
:1000B000002B0000000000240027002A0004040494
:1000C0000404040404020202020202030303030301
:1000D00003010204081020408001020408102001DE
:1000E000020408102000060911241FBECFEFD8E03B
:1000F000DEBFCDBF11E0A0E0B1E0E0E8F4E202C075
:1001000005900D92A835B107D9F722E0A8E5B1E036
:1001100001C01D92A63FB207E1F710E0C4E7D0E0AE
:1001200004C02197FE010E94440FC337D107C9F7CD
:100130000E945C090C943E120C94000090E0FC01BB
:10014000EF52FF4F249183549F4FFC0184918823E9
:1001500099F090E0880F991FFC01ED54FF4FA59195
:10016000B491FC01E755FF4F859194918FB7F894B6
:10017000EC91E22BEC938FBF089590E0FC01EB56DD
:10018000FF4F2491FC01EF52FF4F3491FC01E354E7
:10019000FF4FE491EE23C9F0222339F0233001F11F
:1001A000A8F4213019F1223029F1F0E0EE0FFF1F01
:1001B000E755FF4FA591B4918FB7F894EC91611179
:1001C00026C030953E233C938FBF08952730A9F079
:1001D0002830C9F0243049F7809180008F7D03C01A
:1001E000809180008F7780938000DFCF84B58F77F8
:1001F00084BDDBCF84B58F7DFBCF8091B0008F773E
:100200008093B000D2CF8091B0008F7DF9CF3E2B8C
:10021000DACF3FB7F8948091E1019091E201A0918B
:10022000E301B091E40126B5A89B05C02F3F19F06A
:100230000196A11DB11D3FBFBA2FA92F982F882766
:10024000BC01CD01620F711D811D911D42E0660F41
:10025000771F881F991F4A95D1F708958F929F9213
:10026000AF92BF92CF92DF92EF92FF924B015C016F
:100270000E9409016B017C010E9409016C197D0932
:100280008E099F09683E734081059105A8F321E01E
:10029000821A9108A108B10888EEC80E83E0D81E22
:1002A000E11CF11C81149104A104B10429F7FF9011
:1002B000EF90DF90CF90BF90AF909F908F90089578
:1002C00008950895EF92FF920F931F93CF93DF93BA
:1002D0008C017B01D0E0C0E0F701EC0FFD1F6491C1
:1002E000662361F0D801ED91FC910190F081E02D41
:1002F000C8010995892B11F02196EECFCE01DF912F
:10030000CF911F910F91FF90EF900895AF92BF9200
:10031000CF92DF92EF92FF920F931F93CF93DF93D1
:100320006C017B018B01040F151FEB015E01AE1800
:10033000BF08C017D10759F06991D601ED91FC9122
:100340000190F081E02DC6010995892B79F7C5014F
:10035000DF91CF911F910F91FF90EF90DF90CF90A1
:10036000BF90AF900895FC01538D448D252F30E050
:10037000842F90E0821B930B541710F0CF960895B2
:1003800001970895FC01918D828D981761F0A28DDF
:10039000AE0FBF2FB11D5D968C91928D9F5F9F73A5
:1003A000928F90E008958FEF9FEF0895FC01918D5B
:1003B000828D981731F0828DE80FF11D858D90E0C8
:1003C00008958FEF9FEF0895FC01918D228D892F65
:1003D00090E0805C9F4F821B91098F73992708954D
:1003E00085E392E00E94E40121E0892B09F420E0FA
:1003F000822F089580E090E0892B29F00E94F0017F
:1004000081110C9400000895FC01A48DA80FB92F50
:10041000B11DA35ABF4F2C91848D90E001968F732C
:100420009927848FA689B7892C93A089B1898C914B
:10043000837080648C93938D848D981306C002889A
:10044000F389E02D80818F7D80830895EF92FF9264
:100450000F931F93CF93DF93EC0181E0888F9B8DE7
:100460008C8D98131AC0E889F989808185FF15C0A1
:100470009FB7F894EE89FF896083E889F9898081C4
:100480008370806480839FBF81E090E0DF91CF9193
:100490001F910F91FF90EF900895F62E0B8D10E0B5
:1004A0000F5F1F4F0F731127E02E8C8D8E110CC024
:1004B0000FB607FCFACFE889F989808185FFF5CF6F
:1004C000CE010E940402F1CFEB8DEC0FFD2FF11D48
:1004D000E35AFF4FF0829FB7F8940B8FEA89FB89AC
:1004E00080818062CFCFCF93DF93EC01888D88230A
:1004F000B9F0AA89BB89E889F9898C9185FD03C087
:10050000808186FD0DC00FB607FCF7CF8C9185FF6B
:10051000F2CF808185FFEDCFCE010E940402E9CFAA
:10052000DF91CF910895089520919901260F3327E7
:10053000331F21323105ECF420910B02FC0190E0D5
:1005400080E0243069F082E00895A0919901219122
:10055000AC0147585E4FA40FB52FB11D2C930196E7
:10056000861798F380919901680F6093990180E054
:10057000089581E0089510920B0281E080930A02B1
:100580001092E50161E082E10E94BD0061E083E13B
:100590000E94BD00E9EBF0E080818E7F8083808146
:1005A0008D7F808388E48093B80085E48093BC00CD
:1005B0000895CF93DF9391E0909378018823B9F069
:1005C000C091B800D091BA008091BC008A7B809322
:1005D000BC0060E082E10E94BD0060E083E10E9417
:1005E000BD000E94BB02D093BA00C093B800DF9157
:1005F000CF9108958F929F92AF92BF92CF92DF9248
:10060000EF92FF920F931F93CF93DF93D091340219
:10061000D13208F0D7C0182FC09133020E940901CF
:100620006B017C0180910B0281116BC082E0809391
:100630000B0210930A028FEF8093090210920802B6
:10064000D0930702A3E1B2E0E7EEF1E080E0D81337
:1006500091C01092E6018091E601CC0FC82BC093A7
:10066000E6018091E501813009F088C01092E50132
:100670000E9409016B017C018091E6018093BB001F
:1006800080910D0290910E02A0910F02B091100284
:10069000892B8A2B8B2BA1F00E94090100910D025E
:1006A00010910E0220910F02309110026C197D09F9
:1006B0008E099F09061717072807390708F442C053
:1006C0008091BC0083FDD8CF85EC8093BC000E9454
:1006D00009016B017C0180910B02823009F450C04A
:1006E000809109028F3F09F46FC080910902803226
:1006F00009F46CC080910902803309F469C084E078
:1007000026C080910D0290910E02A0910F02B0912F
:100710001002892B8A2B8B2B09F484CF0E940901AC
:1007200080900D0290900E02A0900F02B0901002E7
:100730006C197D098E099F0986169706A806B906C9
:1007400008F070CF80910C020E94D90285E01092CF
:1007500012021092340210921102DF91CF911F9178
:100760000F91FF90EF90DF90CF90BF90AF909F9050
:100770008F9008959D9191938F5F69CF85EEA5CF5E
:1007800080910D0290910E02A0910F02B091100283
:10079000892B8A2B8B2B09F49ECF0E940901009193
:1007A0000D0210910E0220910F02309110026C196F
:1007B0007D098E099F09061717072807390708F0D2
:1007C0008ACFC0CF81E0C3CF80E0C1CF82E0BFCF6E
:1007D00083E0BDCF0895E091C1018091C001E81789
:1007E00030F4F0E0E85AFE4F808190E008958FEFFA
:1007F0009FEF08959091C1018091C0012FEF3FEFCD
:10080000981748F4E92FF0E0E85AFE4F208130E0D5
:100810009F5F9093C101C90108958091C00190919B
:10082000C101891B990B0895CF92DF92EF92FF923D
:100830000F931F93CF93DF937C01CB018A0120910B
:100840001102222389F0EB016B01C40ED51ECC15D9
:10085000DD0569F06991D701ED91FC910190F0817E
:10086000E02DC7010995F3CF642F0E949402C801BF
:10087000DF91CF911F910F91FF90EF90DF90CF907C
:100880000895CF93DF931F92CDB7DEB76983209190
:1008900011022223F9F020913402203258F021E095
:1008A00030E0FC013383228390E080E00F90DF9101
:1008B000CF91089580911202E82FF0E0ED5EFD4F98
:1008C000998190838F5F809312028093340281E03C
:1008D00090E0ECCF61E0CE0101960E949402F7CF48
:1008E00090E080E00895CF93DF93EC0160E08E818B
:1008F0000E94BD0061E08E810E94BD0060E08E819B
:100900000E94BD008BE891E00197F1F7DF91CF9154
:100910000895CF92DF92EF92FF920F931F93CF93A0
:10092000DF936C017C0187E0E80EF11CD0E0C0E0B1
:10093000062F10E0B8010C2E02C0759567950A9439
:10094000E2F76170F70181917F010E94BD0021965D
:10095000C430D10579F7C601DF91CF911F910F9176
:10096000FF90EF90DF90CF900C947304CF92DF92C2
:10097000EF92FF920F931F93CF93DF93EC01F62E2C
:10098000642F8C810E94BD008D818F3F19F060E043
:100990000E94BD000F2D10E08F8584FF25C06E01E1
:1009A00087E0C80ED11CF12CE12CB8010E2C02C03E
:1009B000759567950A94E2F76170F60181916F0170
:1009C0000E94BD00FFEFEF1AFF0A88E0E816F1046D
:1009D00061F7CE01DF91CF911F910F91FF90EF90C2
:1009E000DF90CF900C947304B80184E075956795FF
:1009F0008A95E1F7CE010E9489046F2DCE01DF9127
:100A0000CF911F910F91FF90EF90DF90CF900C94BA
:100A1000890440E0682F8EED92E00C94B604CF93E9
:100A2000DF93823029F49091ED0298609093ED026B
:100A30008093F1021092F20280E48093F30280E14D
:100A40008093F40280E58093F5028091E2020E9497
:100A50009E008091E3028F3F11F00E949E008091E2
:100A6000E4020E949E00CEEDD2E09E012E5D324057
:100A70008091ED0284FD0AC084E090E02196281761
:100A800039073CF48E810E949E00EFCF88E090E011
:100A9000F5CF8BE39DE00197F1F760E08091E202F2
:100AA0000E94BD0060E08091E4020E94BD00809140
:100AB000E3028F3F19F060E00E94BD008091ED02DB
:100AC00084FD39C063E08EED92E00E948904CBE49E
:100AD000D6E4CE010197F1F763E08EED92E00E943B
:100AE00089042197F1F763E08EED92E00E9489047A
:100AF00083E592E00197F1F762E08EED92E00E94CB
:100B000089048091ED0280620E94090584E080934F
:100B1000EE028CE00E94090581E00E9409058BE34A
:100B20009FE10197F1F782E08093EF0286E0DF9189
:100B3000CF910C94090580620E9409058BE496E42C
:100B40000197F1F78091ED0280620E94090583E52B
:100B500092E00197F1F78091ED0280620E94090511
:100B6000D0CF9091F102891710F08FEF890FE82F05
:100B7000F0E0E252FD4F848980680C94090541E061
:100B80000E94B60481E090E00895CF92DF92EF9248
:100B9000FF920F931F93CF93DF93C82F81E0809331
:100BA0001102C0933302109212021092340282EDAD
:100BB00092E00E94410481E00E94FA020E94090131
:100BC0006B017C0180910B02811165C081E08093F3
:100BD0000B0280930A029FEF909309021092080281
:100BE000809307028093E6018091E601CC0FC82B29
:100BF000C093E6018091E501813009F092C0109226
:100C0000E5010E9409016B017C018091E60180935E
:100C1000BB0080910D0290910E02A0910F02B09145
:100C20001002892B8A2B8B2BA1F00E9409010091C5
:100C30000D0210910E0220910F02309110026C19DA
:100C40007D098E099F09061717072807390708F439
:100C500043C08091BC0083FDD8CF85EC8093BC005D
:100C60000E9409016B017C0180910B02813009F423
:100C70005AC080910802C2E0823010F4C09108028C
:100C8000A7EEB1E0E8E5F1E080E08C1751F19D912D
:100C900091938F5FFACF80910D0290910E02A091F7
:100CA0000F02B0911002892B8A2B8B2B09F48ACF6B
:100CB0000E94090100910D0210910E0220910F0275
:100CC000309110026C197D098E099F0906171707CC
:100CD0002807390708F076CF80910C020E94D902CC
:100CE000C0E01092C101C093C001D0E0CC2329F034
:100CF00082ED92E00E94FA03D82F8091C101C817BB
:100D0000A1F182ED92E00E94FA0320E0822B9D2B5C
:100D1000DF91CF911F910F91FF90EF90DF90CF90D7
:100D2000089585EE9BCF80910D0290910E02A091C7
:100D30000F02B0911002892B8A2B8B2B09F494CFD0
:100D40000E94090100910D0210910E0220910F02E4
:100D5000309110026C197D098E099F09061717073B
:100D60002807390708F080CFB7CF90E080E0CDCFDB
:100D7000FB0101900020E9F73197AF01461B570BAB
:100D8000DC01ED91FC910280F381E02D09948F92BA
:100D90009F92AF92BF920F931F93CF93DF93CDB7E4
:100DA000DEB7A1970FB6F894DEBF0FBECDBF19A274
:100DB000423008F44AE08E010F5D1F4F842E912CC3
:100DC000B12CA12CA50194010E94F80EE62FB901C7
:100DD000CA01EA3004F5E05DD801EE938D01232BC2
:100DE000242B252B79F790E080E0109729F0BD01A6
:100DF00085E392E00E94B806A1960FB6F894DEBF94
:100E00000FBECDBFDF91CF911F910F91BF90AF90DB
:100E10009F908F900895E95CDFCF85ED8093BC00B3
:100E200080910D0290910E02A0910F02B0911002DC
:100E30000796A11DB11D23E0B695A79597958795B7
:100E40002A95D1F72091BC0024FD03C010920B021B
:100E5000089540910D0250910E0260910F02709121
:100E60001002452B462B472B69F30097A105B105CE
:100E700041F02AE22A95F1F700C00197A109B109D2
:100E8000E1CF80910C020C94D9021F920F920FB601
:100E90000F9211242F933F938F939F93AF93BF9300
:100EA0008091DD019091DE01A091DF01B091E00120
:100EB0003091DC0123E0230F2D3758F50196A11D59
:100EC000B11D2093DC018093DD019093DE01A0939E
:100ED000DF01B093E0018091E1019091E201A091E6
:100EE000E301B091E4010196A11DB11D8093E101E0
:100EF0009093E201A093E301B093E401BF91AF911D
:100F00009F918F913F912F910F900FBE0F901F9047
:100F1000189526E8230F0296A11DB11DD2CF1F926E
:100F20000F920FB60F9211242F933F934F935F931D
:100F30006F937F938F939F93AF93BF93EF93FF93A1
:100F400085E392E00E940402FF91EF91BF91AF917F
:100F50009F918F917F916F915F914F913F912F91D1
:100F60000F900FBE0F901F9018951F920F920FB603
:100F70000F9211242F938F939F93EF93FF93E09100
:100F80004502F09146028081E0914B02F0914C02C3
:100F900082FD1BC0908180914E028F5F8F732091E4
:100FA0004F02821741F0E0914E02F0E0EB5CFD4F02
:100FB000958F80934E02FF91EF919F918F912F918A
:100FC0000F900FBE0F901F9018958081F4CF1F9245
:100FD0000F920FB60F9211242F933F934F935F936D
:100FE0006F937F938F939F93AF93BF93EF93FF93F1
:100FF0008091B900887F803609F44AC0F0F58832C4
:1010000009F4A7C018F5803109F49BC0B8F488230F
:1010100009F4F9C0883009F494C0FF91EF91BF91B1
:10102000AF919F918F917F916F915F914F913F9180
:101030002F910F900FBE0F901F901895883109F4D3
:1010400088C0803251F78093090214C0803409F4BB
:101050009DC040F48033B9F38833F9F680930902D8
:1010600085ECB0C0803509F485C0883509F496C098
:10107000883499F60E940D07D0CF883909F48CC0C6
:1010800038F5883729F050F4883611F0803729F682
:1010900083E080930B021092BB0157C0883809F49B
:1010A0007BC0803919F0803809F0B7CF8091BB013F
:1010B000803208F071C0E091BB0181E08E0F809317
:1010C000BB018091BB00F0E0E556FE4F80833DC040
:1010D000803B39F0E0F4803A09F479C0883A09F0AD
:1010E0009CCF84E080930B0210929A011092990198
:1010F000E091BE01F091BF010995809199018111A4
:101100000FC081E0809399011092790109C0803C61
:1011100009F4A6CF883C09F4A3CF883B09F07DCF22
:10112000E0919A0181E08E0F80939A01F0E0E758F8
:10113000FE4F80818093BB0090919A01809199012C
:1011400029C08091E6018093BB0085EC8093BC00B0
:1011500064CF9091080280910702981758F5E091AA
:10116000080281E08E0F80930802F0E0E951FE4F03
:101170008081E9CFE091080281E08E0F8093080220
:101180008091BB00F0E0E951FE4F8083909108020E
:10119000809107029817C8F285E8D8CFE09108023D
:1011A00081E08E0F809308028091BB00F0E0E9514E
:1011B000FE4F808380910A0281115CCF81E0809391
:1011C000E50184EA8093BC0010920B0226CF85ECE7
:1011D0008093BC0010920B028091BB01803230F4EE
:1011E000E091BB01F0E0E556FE4F10826091BB013B
:1011F00070E0E091BC01F091BD018BE991E00995AF
:101200001092BB010ACF1092090234CFE5E3F2E05D
:101210001382128288EE93E0A0E0B0E0848395838D
:10122000A683B78326E031E03183208325EC30E0CC
:101230003587248724EC30E03787268720EC30E0A0
:10124000318B208B21EC30E0338B228B22EC30E091
:10125000358B248B26EC30E0378B268B118E128E4B
:10126000138E148EE2EDF2E0138212828483958352
:10127000A683B78388E191E091838083EEEDF2E06D
:10128000138212828AE291E0918380838CE08483CE
:101290008FEF85838BE0868385E0878384E080877A
:1012A00083E0818782E082871386148615861686FE
:1012B000178681E00C940F05CF93DF93CDB7DEB78F
:1012C00061970FB6F894DEBF0FBECDBF789484B59A
:1012D000826084BD84B5816084BD85B5826085BD32
:1012E00085B5816085BD80916E00816080936E00C0
:1012F00010928100809181008260809381008091B2
:101300008100816080938100809180008160809362
:1013100080008091B10084608093B1008091B00022
:1013200081608093B00080917A00846080937A001D
:1013300080917A00826080937A0080917A00816047
:1013400080937A0080917A00806880937A0010926E
:10135000C10087E00E949E0060E087E00E94BD001F
:10136000E0914502F091460282E08083E0914102E3
:10137000F09142021082E0914302F09144028FEC1E
:10138000808310924D02E0914902F0914A0286E07A
:101390008083E0914702F0914802808180618083E0
:1013A000E0914702F0914802808188608083E0915B
:1013B0004702F0914802808180688083E091470273
:1013C000F091480280818F7D808382E00E940F052A
:1013D00081E00E9409058BE39FE10197F1F780E02E
:1013E0000E94B10569E770E08EED92E00E94620113
:1013F00081E00E94B10568E670E08EED92E00E9407
:1014000062011092C1011092C0011092120210925A
:1014100034020E94BB0280E691E09093BF0180936A
:10142000BE0181E691E09093BD018093BC0164E62A
:1014300070E080E090E00E942E0111E01093110214
:1014400087E78093330281E00E94FA02882309F43F
:1014500088C01093110286E7809333021092120223
:101460001092340281E00E94FA02811106C086E7E0
:1014700090E09093010180930001109100016AEACD
:10148000812F0E94C5059093C5018093C4016CEA29
:10149000812F0E94C5056EEA812F0E94C50560EB71
:1014A000812F0E94C5059093C3018093C20162EB16
:1014B000812F0E94C5059093CB018093CA0164EBF4
:1014C000812F0E94C5059093CD018093CC0166EBDE
:1014D000812F0E94C50568EB812F0E94C5056AEB2C
:1014E000812F0E94C5056CEB812F0E94C50590934A
:1014F000C9018093C8016EEB812F0E94C5059093AE
:10150000C7018093C60164E670E080E090E00E942D
:101510002E010EE311E09E012F5F3F4F590150E075
:10152000852E50E0952E6624639485E392E00E9418
:10153000E40118161906ECF485E392E00E94C2015A
:101540009091DB018A3011F08D3069F4992369F3B1
:101550008091DA01811102C06092DA011092DB0100
:10156000E4CF87E785CF9F3100F79F5F9093DB0142
:10157000DCCF8FB7F894C090DD01D090DE01E09011
:10158000DF01F090E0018FBF8091D6019091D701EB
:10159000A091D801B091D901A7019601281B390B60
:1015A0004A0B5B0BDA01C901883C9105A105B10525
:1015B00008F409C1C092D601D092D701E092D801B7
:1015C000F092D90170900001609211027092330282
:1015D000109212021092340264EF82ED92E00E94A7
:1015E00041046EE282ED92E00E94410481E00E949B
:1015F000FA0265E070E080E090E00E942E0166EF64
:10160000872D0E94C5059C0150E040E08091CC01EF
:101610009091CD01281B390B41095109A091CA01B4
:10162000B091CB010E94390F1B012C012FE0559482
:101630004794379427942A95D1F76091C801709107
:10164000C901072E000C880B990B3BE0660F771F32
:10165000881F991F3A95D1F72091C6013091C70193
:10166000032E000C440B550B220D331D441D551D3C
:101670000E941A0FCA01B901620D731D841D951DC8
:10168000685F7F4F8F4F9F4F44E095958795779583
:1016900067954A95D1F70E94D10D20E030E040E2F5
:1016A00051E40E942E0D1B012C0120E030E040E2AD
:1016B00052EC0E94290D87FDF7C02092D201309292
:1016C000D3014092D4015092D50120E030E04AEAA3
:1016D00052E46091D2017091D3018091D401909134
:1016E000D5010E94810E181664F480E090E0AAEA09
:1016F000B2E48093D2019093D301A093D401B0932C
:10170000D5015090D2014090D3013090D401209067
:10171000D50180E00E94B10590E1792E41E060E2C0
:101720008EED92E00E94B6047A947110F7CF80E0BB
:101730000E94B10569E870E08EED92E00E946201BE
:1017400062E371E08EED92E00E94B8062F923F9224
:101750004F925F921F930F931F9231E13F93BF927D
:10176000AF920E94590F81E00E94B1050FB6F89424
:10177000DEBF0FBECDBF80E1782E41E060E28EED8E
:1017800092E00E94B6047A947110F7CF81E00E9433
:10179000B105B5018EED92E00E94B80620E030E080
:1017A00044E052E46091D2017091D3018091D40160
:1017B0009091D5010E94810E61E018160CF060E056
:1017C00087E00E94BD008091DA01882309F460C09F
:1017D0008091CE019091CF01A091D001B091D10123
:1017E000A7019601281B390B4A0B5B0BDA01C901D3
:1017F000883C9105A105B10508F44AC0C092CE010C
:10180000D092CF01E092D001F092D1016FE870E068
:1018100085E392E00E946201C090D201D090D30192
:10182000E090D401F090D501A7019601C701B6015F
:101830000E94F30E69E471E081111AC016012701BC
:10184000E89457F82FEF3FEF4FE75FE7C201B10190
:101850000E94F30E811135C02FEF3FEF4FE75FE796
:10186000C201B1010E94290D18165CF56DE471E00A
:1018700085E392E00E94B8066DE870E085E392E0AF
:101880000E94620165E571E085E392E00E94B8067E
:101890008114910409F449CE0E94F001882309F4CF
:1018A00044CE0E94000041CE80E090E0A0E2B2EC85
:1018B0008093D2019093D301A093D401B093D5012A
:1018C00004CF2FEF3FEF4FE75FE4C701B6010E945F
:1018D000810E18161CF461E571E0CACF2FEF3FEFBF
:1018E0004FE75FECC701B6010E94290D87FDF3CFDA
:1018F00020E030E0A901C701B6010E94290D87FF51
:1019000009C06DE285E392E00E942602F7FAF094A6
:10191000F7F8F0942DEC3CEC4CE45DE3C701B60124
:101920000E94BD0C1B012C010E94A00D6B017C01CB
:101930000E94CF0D9B01AC01C201B1010E94BC0C01
:101940001B012C014AE0C701B6010E94C7066EE2E6
:1019500085E392E00E94260220E030E040E251E47C
:10196000C201B1010E94860E0E94A00D90E080E0AD
:101970004AE00E94C70680CF5058BB27AA270E9482
:10198000D40C0C94470E0E94390E38F00E94400E81
:1019900020F039F49F3F19F426F40C94360E0EF41F
:1019A000E095E7FB0C94300EE92F0E94580E58F397
:1019B000BA17620773078407950720F079F4A6F534
:1019C0000C947A0E0EF4E0950B2EBA2FA02D0B017D
:1019D000B90190010C01CA01A0011124FF27591B74
:1019E00099F0593F50F4503E68F11A16F040A22F7A
:1019F000232F342F4427585FF3CF469537952795EB
:101A0000A795F0405395C9F77EF41F16BA0B620BE9
:101A1000730B840BBAF09150A1F0FF0FBB1F661F30
:101A2000771F881FC2F70EC0BA0F621F731F841F73
:101A300048F4879577956795B795F7959E3F08F099
:101A4000B0CF9395880F08F09927EE0F979587955B
:101A500008950E940C0E08F481E008950E94420D42
:101A60000C94470E0E94400E58F00E94390E40F030
:101A700029F45F3F29F00C94300E51110C947B0E29
:101A80000C94360E0E94580E68F39923B1F3552337
:101A900091F3951B550BBB27AA2762177307840781
:101AA00038F09F5F5F4F220F331F441FAA1FA9F317
:101AB00035D00E2E3AF0E0E832D091505040E69505
:101AC000001CCAF72BD0FE2F29D0660F771F881F66
:101AD000BB1F261737074807AB07B0E809F0BB0B59
:101AE000802DBF01FF2793585F4F3AF09E3F51056D
:101AF00078F00C94300E0C947B0E5F3FE4F3983E2C
:101B0000D4F3869577956795B795F7959F5FC9F755
:101B1000880F911D9695879597F90895E1E0660FD6
:101B2000771F881FBB1F621773078407BA0720F04F
:101B3000621B730B840BBA0BEE1F88F7E0950895B8
:101B40000E94600E88F09F5798F0B92F9927B751DF
:101B5000B0F0E1F0660F771F881F991F1AF0BA9551
:101B6000C9F714C0B13091F00E947A0EB1E0089527
:101B70000C947A0E672F782F8827B85F39F0B93F19
:101B8000CCF3869577956795B395D9F73EF4909504
:101B90008095709561957F4F8F4F9F4F0895E89482
:101BA00009C097FB3EF490958095709561957F4FA5
:101BB0008F4F9F4F9923A9F0F92F96E9BB27939553
:101BC000F695879577956795B795F111F8CFFAF463
:101BD000BB0F11F460FF1BC06F5F7F4F8F4F9F4F94
:101BE00016C0882311F096E911C0772321F09EE8F2
:101BF000872F762F05C0662371F096E8862F70E058
:101C000060E02AF09A95660F771F881FDAF7880F31
:101C10009695879597F90895990F0008550FAA0B87
:101C2000E0E8FEEF16161706E807F907C0F01216EF
:101C30001306E407F50798F0621B730B840B950BF2
:101C400039F40A2661F0232B242B252B21F4089547
:101C50000A2609F4A140A6958FEF811D811D0895E4
:101C600097F99F6780E870E060E008959FEF80EC4F
:101C7000089500240A9416161706180609060895F2
:101C800000240A9412161306140605060895092E58
:101C90000394000C11F4882352F0BB0F40F4BF2BC7
:101CA00011F460FF04C06F5F7F4F8F4F9F4F089507
:101CB00057FD9058440F551F59F05F3F71F04795FD
:101CC000880F97FB991F61F09F3F79F087950895E2
:101CD000121613061406551FF2CF4695F1DF08C001
:101CE000161617061806991FF1CF8695710561051E
:101CF00008940895E894BB2766277727CB0197F9C6
:101D000008950E940C0E08F48FEF08950E94990E1A
:101D10000C94470E0E94390E38F00E94400E20F0BD
:101D2000952311F00C94300E0C94360E11240C9463
:101D30007B0E0E94580E70F3959FC1F3950F50E0F3
:101D4000551F629FF001729FBB27F00DB11D639F6D
:101D5000AA27F00DB11DAA1F649F6627B00DA11D13
:101D6000661F829F2227B00DA11D621F739FB00DB9
:101D7000A11D621F839FA00D611D221F749F332729
:101D8000A00D611D231F849F600D211D822F762FC2
:101D90006A2F11249F5750409AF0F1F088234AF09F
:101DA000EE0FFF1FBB1F661F771F881F915050400B
:101DB000A9F79E3F510580F00C94300E0C947B0ED9
:101DC0005F3FE4F3983ED4F3869577956795B79592
:101DD000F795E7959F5FC1F7FE2B880F911D9695AC
:101DE000879597F908950E940C0E880B990B08951A
:101DF000A1E21A2EAA1BBB1BFD010DC0AA1FBB1F0F
:101E0000EE1FFF1FA217B307E407F50720F0A21B80
:101E1000B30BE40BF50B661F771F881F991F1A94ED
:101E200069F760957095809590959B01AC01BD0117
:101E3000CF010895052E97FB1EF400940E94310FE8
:101E400057FD07D00E94F80E07FC03D04EF40C9407
:101E5000310F50954095309521953F4F4F4F5F4F33
:101E6000089590958095709561957F4F8F4F9F4F06
:101E700008950E944A0FA59F900DB49F900DA49FB6
:101E8000800D911D11240895EE0FFF1F0590F49110
:101E9000E02D0994A29FB001B39FC001A39F700DD4
:101EA000811D1124911DB29F700D811D1124911D62
:101EB0000895AEE0B0E0EFE5FFE00C9415120D8957
:101EC0001E898F89988D26E02C831A83098397FFBA
:101ED00002C080E090E801979E838D83AE01455E4D
:101EE0005F4F698D7A8DCE0101960E94890F4D81D9
:101EF0005E8157FD0AC02F813885421753070CF4C5
:101F00009A01020F131FF80110822E96E4E00C9440
:101F10003112ABE0B0E0EFE8FFE00C9407127C0177
:101F20003B018A01FC0117821682838181FFC8C1AF
:101F3000CE0101965C01F7019381F30193FD859138
:101F400093FF81913F01882309F453C1853239F40D
:101F500093FD859193FF81913F01853229F4B7016B
:101F600090E00E947911E7CF912C212C312CFFE1D8
:101F7000F31538F08B3211F190F4803209F183328D
:101F800029F137FC3CC020ED280F2A3050F536FEF1
:101F900020C08AE0989E200D1124922E06C08D321A
:101FA00091F0803371F7689430F8F30193FD8591D7
:101FB00093FF81913F018111DACF21C0689431F8FC
:101FC000689432F8F2CF689433F8EFCF689434F81D
:101FD000ECCFEAE02E9E200D1124222E689435F8D5
:101FE000E4CF8E3229F436FC04C1689436F8DDCF94
:101FF0008C3619F4689437F8D8CF8836B1F2982F18
:102000009F7D95549330E0F08336A1F18337C1F181
:10201000833509F063C02801F2E04F0E511CF8012E
:10202000C080D180692D70E036FC02C06FEF7FEF79
:10203000C6010E9463114C01689437F882010AC0FE
:102040000C5F1F4FFFE3F98388248394912C650173
:10205000E89437F833FE2DC0522C8114910471F5A9
:10206000552009F468CFB70180E290E00E94791111
:102070005A94F6CFF801808189830E5F1F4FE4CF19
:102080002801F2E04F0E511CF801C080D180692D6B
:1020900070E036FC02C06FEF7FEFC6010E946E1148
:1020A0004C018201D5CFB70180E290E00E94791106
:1020B0002A942814190409F0B0F7CECFF60137FCA2
:1020C000859137FE81916F01B70190E00E947911EF
:1020D00051105A94F1E08F1A9108BFCF843619F04D
:1020E000893609F077C0F80137FE6BC060817181D5
:1020F000828193810C5F1F4FF32DFF763F2E97FF58
:1021000009C090958095709561957F4F8F4F9F4F37
:10211000689437F82AE030E0A5010E94A911C82E82
:10212000CA188C2C432C36FE0CC0E89440F8C91415
:1021300040F434FE05C032FC03C0F32DFE7E4F2E6A
:10214000892C44FE95C0FE01EC0DF11D8081803389
:1021500009F087C0242D297E422E842D8870582EA8
:1021600043FC95C040FE8FC09C2C821418F42C0CAC
:10217000922C981844FE91C0B70180E390E00E9431
:10218000791142FE09C088E790E041FE02C088E56F
:1021900090E0B7010E947911C91408F48AC0CA946A
:1021A000D12C9FEFC91AD90ACA0CDB1CF601829107
:1021B0006F01B70190E00E947911AC14BD04B1F732
:1021C0004FCF60817181072E000C880B990B0E5F39
:1021D0001F4F92CFD32CE894D4F82AE030E0853713
:1021E00039F1232D297FD22E8F3601F148F488351D
:1021F000A9F0F701868197812B96E2E10C942312D6
:10220000803749F08837A9F7D4FE02C06894D2F825
:1022100020E130E00DC06894D4F8F6CF34FE03C05E
:10222000822F8660D82E20E132E002C028E030E024
:10223000F801D7FE0FC060817181828193810C5FAC
:102240001F4FA5010E94A911C82ECA183D2CE89461
:1022500037F867CF6081718190E080E00E5F1F4F9B
:10226000F0CF42FC02C0839478CF8394839475CFDF
:10227000842D867809F471CFF6CFB70180E290E023
:102280000E94791183948214C0F3512C73CF522C85
:102290005818821408F46ECFF8CF842D867809F48C
:1022A0007BCF8BE241FE80E247FC8DE2B70190E0FC
:1022B00071CFB70180E390E00E9479119A946CCFBE
:1022C0008FEF9FEF99CFFC01059061507040011096
:1022D000D8F7809590958E0F9F1F0895FC0161504F
:1022E000704001900110D8F7809590958E0F9F1F38
:1022F00008950F931F93CF93DF93182F092FEB01AE
:102300008B8181FD09C01FEF0FEF812F902FDF918F
:10231000CF911F910F91089582FF14C02E813F81AC
:102320008C819D81281739073CF4E881F981CF0120
:1023300001969983888310838E819F8101969F8364
:102340008E83E3CFE885F985812F0995892BA1F349
:10235000DACFFA01AA27283051F1203181F1E8942F
:102360006F936E7F6E5F7F4F8F4F9F4FAF4FB1E088
:102370003ED0B4E03CD0670F781F891F9A1FA11D83
:10238000680F791F8A1F911DA11D6A0F711D811D84
:10239000911DA11D20D009F468943F912AE0269F49
:1023A00011243019305D3193DEF6CF010895462FA8
:1023B0004770405D4193B3E00FD0C9F7F6CF462F89
:1023C0004F70405D4A3318F0495D31FD40524193F2
:1023D00002D0A9F7EACFB4E0A695979587957795AF
:1023E0006795BA95C9F700976105710508959B0136
:1023F000AC010A2E06945795479537952795BA95BF
:10240000C9F7620F731F841F951FA01D08952F9297
:102410003F924F925F926F927F928F929F92AF9274
:10242000BF92CF92DF92EF92FF920F931F93CF93C1
:10243000DF93CDB7DEB7CA1BDB0B0FB6F894DEBF58
:102440000FBECDBF09942A88398848885F846E847E
:102450007D848C849B84AA84B984C884DF80EE80C8
:10246000FD800C811B81AA81B981CE0FD11D0FB6D1
:10247000F894DEBF0FBECDBFED010895F894FFCFF5
:1024800077000000000026028601B3017302E40118
:10249000C201D60100000000410414047004EA03E4
:1024A0000D04FA03EB0300000000BF058601700471
:1024B00093023233303039323930303733005445BB
:1024C0004D503A252E316643006E616E00696E668E
:0824D000006F7666000D0A00A2
:00000001FF
