:100000000C9488000C94DC070C9403080C94B0004A
:100010000C94B0000C94B0000C94B0000C947F07CA
:100020000C94B0000C94B0000C94B0000C94B00090
:100030000C94B0000C94B0000C94B0000C94B00080
:100040000C943B080C94B0000C9443050C9475057B
:100050000C94B0000C94B0000C94B0000C94B00060
:100060000C94810D0C94B000430054454D503A005F
:1000700057616974696E6720666F722049442E2E3D
:100080000054656D70657261747572652053797383
:100090000020202020202020202020202020202080
:1000A000200049443A002020202020202020202029
:1000B0002020202020200002000000080002010073
:1000C0000003040700000000000000000102040813
:1000D00010204080010204081020010204081020B2
:1000E00004040404040404040202020202020303DE
:1000F0000303030300000000250028002B0000007C
:100100000000240027002A004101A5051406890CDF
:1001100011241FBECFEFD8E0DEBFCDBF11E0A0E0BD
:10012000B1E0ECEEF3E202C005900D92AA36B10701
:10013000D9F723E0AAE6B1E001C01D92AE33B207C1
:10014000E1F710E0C8E8D0E004C02197FE010E946A
:10015000FA0EC438D107C9F70E942C080C94F41188
:100160000C9400000F931F93CF93DF93CDB7DEB7AE
:1001700061970FB6F894DEBF0FBECDBF97FF09C0E1
:1001800090958095709561957F4F8F4F9F4F1DE2A1
:1001900001C010E22AE030E040E050E00E94D00EC2
:1001A0009F938F937F936F935F934F933F932F937F
:1001B0001F921F9380E191E09F938F931F9281E1A3
:1001C0008F938E010F5F1F4F1F930F930E940F0F8E
:1001D00040E060E083EB91E00E94770A66EA70E01D
:1001E00083EB91E00E945F0640E060E083EB91E0EA
:1001F0000E94770A62EA70E083EB91E00E945F065A
:1002000060E271E083EB91E00E94830641E060E0F0
:1002100083EB91E00E94770A61E970E083EB91E063
:100220000E945F0641E060E083EB91E00E94770A64
:10023000B80183EB91E00E9483060FB6F894DEBF0D
:100240000FBECDBF61960FB6F894DEBF0FBECDBF17
:10025000DF91CF911F910F9108956D32714081050B
:10026000910544F061E087E00E949D0981E0809360
:100270007201089560E087E00E949D09109272016A
:100280000895CF92EF920F9382E0C82E93E0E92E6B
:1002900004E025E04BE06CE083EB91E00E94370B3B
:1002A0000F91EF90CF9008951F93CF93DF931F92FC
:1002B000CDB7DEB7162F682F8EE792E049830E94F4
:1002C000020C612F8EE792E00E94B90B4981642FE6
:1002D0008EE792E00E94B90B8EE792E00F90DF91DB
:1002E000CF911F910C94860CCF93DF93C82FD62FFC
:1002F000682F8EE792E00E94020C6D2F8EE792E04D
:100300000E94B90B8EE792E00E94860C42E06C2FAF
:100310008EE792E00E94830C8EE792E00E945D0BD4
:10032000892B31F08EE792E00E94650BC82F01C047
:10033000C0E08EE792E00E945D0B892B29F08EE7EA
:1003400092E00E94650B02C080E090E020E030E087
:100350003C2F822B932BDF91CF910895CF93C82F01
:1003600040E064EF0E94540164EF8C2F0E947401FE
:10037000292F30E081E0232B09F080E0CF91089510
:1003800087E70E94AE01811108C086E70E94AE0196
:10039000882309F473C086E701C087E780930A01C8
:1003A0006AEA0E9474019093B2018093B1016CEAF1
:1003B00080910A010E9474019093B0018093AF0173
:1003C0006EEA80910A010E9474019093AE018093BD
:1003D000AD0160EB80910A010E9474019093A2012B
:1003E0008093A10162EB80910A010E9474019093B5
:1003F000A00180939F0164EB80910A010E94740127
:1004000090939E0180939D0166EB80910A010E946A
:1004100074019093AC018093AB0168EB80910A0169
:100420000E9474019093AA018093A9016AEB8091C4
:100430000A010E9474019093A8018093A7016CEBBC
:1004400080910A010E9474019093A6018093A501F6
:100450006EEB80910A010E9474019093A401809335
:10046000A30180919F019091A001892B39F081E037
:1004700020919D0130919E01232B09F480E0089585
:1004800061E087E00E94610960E087E00E949D09C9
:1004900026E040E855E260E070E08BEC91E00E94DD
:1004A000DE0420E042E060E183EB91E00E94920AEA
:1004B00083EB91E00E94700A40E060E083EB91E002
:1004C0000E94770A61E870E083EB91E00E945F068A
:1004D00041E060E083EB91E00E94770A60E770E022
:1004E00083EB91E00E945F068EE792E00E94F80B9A
:1004F00064E670E080E090E00E94B6080E94C001CF
:1005000064E670E080E090E00C94B6088F929F92D1
:10051000AF92BF92CF92DF92EF92FF924EE264EFE2
:1005200080910A010E94540165E070E080E090E053
:100530000E94B60866EF80910A010E947401AC0126
:1005400060E070E080919D0190919E019A01AB0165
:10055000281B390B41095109A0919F01B091A001BD
:100560000E94EF0E6B017C018FE0F594E794D79425
:10057000C7948A95D1F78090A5019090A601092C87
:10058000000CAA08BB08C501B4012BE0660F771F59
:10059000881F991F2A95D1F72091A3013091A401BA
:1005A0004901330FAA08BB08A7019601280D391D80
:1005B0004A1D5B1D0E94D00ED701C601820F931FFA
:1005C000A41FB51F8093990190939A01A0939B015A
:1005D000B0939C010896A11DB11DBC01CD0134E072
:1005E00095958795779567953A95D1F7FF90EF9018
:1005F000DF90CF90BF90AF909F908F9008958F9293
:100600009F92AF92BF92CF92DF92EF92FF92CF93E1
:10061000C1E08BEC91E00E9418041816190604F54D
:100620008BEC91E00E943204E09178018A3011F065
:100630008D3059F4EE2369F3F0E0E758FE4F108255
:10064000C093770110927801E4CFEF3110F791E079
:100650009E0F90937801F0E0E758FE4F8083D9CF4A
:100660000E9485086B017C0180916E0190916F0161
:10067000A0917001B0917101A7019601281B390B5F
:100680004A0B5B0B283C31054105510508F453C06A
:10069000C0926E01D0926F01E0927001F0927101F0
:1006A0000E94860260373EEF73073FEF8307930790
:1006B0004CF0609373017093740180937501909373
:1006C00076010CC080E79EEFAFEFBFEF8093730120
:1006D00090937401A0937501B0937601809173019A
:1006E00090917401A0917501B0917601833593408A
:1006F000A105B10564F082E593E0A0E0B0E080934D
:10070000730190937401A0937501B0937601609189
:1007100073017091740180917501909176010E942E
:10072000B200609173017091740180917501909194
:1007300076010E942D0180917701882309F46EC013
:1007400080916A0190916B01A0916C01B0916D0153
:10075000A7019601281B390B4A0B5B0B283C31057E
:100760004105510508F45AC0C0926A01D0926B014C
:10077000E0926C01F0926D01C0907301D090740111
:10078000E0907501F0907601F7FE0AC0F094E094D5
:10079000D094C094C11CD11CE11CF11CCDE201C05D
:1007A000C0E26AE670E08BEC91E00E945F06CD3219
:1007B00029F46DE28BEC91E00E948506C701B60139
:1007C0002AE030E040E050E00E94D00E49015A019A
:1007D0006B017C012AE030E0B501A4018BEC91E0D3
:1007E0000E94EB066EE28BEC91E00E9485062AE007
:1007F00030E0B701A6018BEC91E00E94EB0668E6C1
:1008000070E08BEC91E0CF91FF90EF90DF90CF9074
:10081000BF90AF909F908F900C949006CF91FF90D7
:10082000EF90DF90CF90BF90AF909F908F90089502
:10083000FC01918D228D892F90E0805C9F4F821B5F
:1008400091098F7399270895FC01918D828D9817D6
:1008500031F0828DE80FF11D858D90E008958FEFC6
:100860009FEF0895FC01918D828D981761F0828D24
:10087000DF01A80FB11D5D968C91928D9F5F9F73D4
:10088000928F90E008958FEF9FEF08958BE995E0A8
:10089000892B49F080E090E0892B29F00E949B058C
:1008A00081110C9400000895FC01848DDF01A80FD4
:1008B000B11DA35ABF4F2C91848D90E001968F7388
:1008C0009927848FA689B7892C93A089B1898C91A7
:1008D00080648C93938D848D981306C00288F3896D
:1008E000E02D80818F7D80830895CF93DF93EC018D
:1008F000888D8823C9F0EA89FB89808185FD05C040
:10090000A889B9898C9186FD0FC00FB607FCF5CF79
:10091000808185FFF2CFA889B9898C9185FFEDCFC1
:10092000CE010E945404E7CFDF91CF910895EF925A
:10093000FF920F931F93CF93DF93EC0181E0888F99
:100940009B8D8C8D981305C0E889F989808185FD80
:1009500024C0F62E0B8D10E00F5F1F4F0F73112771
:10096000E02E8C8DE8120CC00FB607FCFACFE88998
:10097000F989808185FFF5CFCE010E945404F1CF23
:100980008B8DFE01E80FF11DE35AFF4FF0820B8FB4
:10099000EA89FB898081806207C0EE89FF896083D4
:1009A000E889F98980818064808381E090E0DF912B
:1009B000CF911F910F91FF90EF900895CF92DF920A
:1009C000EF92FF921F93CF93DF93EC016A017B01BB
:1009D000122FE889F98982E080834115514E610523
:1009E0007105B1F060E079E08DE390E0A701960138
:1009F0000E94AE0EDA01C9010197A109B109B695AD
:100A0000A79597958795AC01411580E15807A8F007
:100A1000E889F989108260E874E88EE190E0A70126
:100A200096010E94AE0EBA01A90141505109610917
:100A300071097695679557954795EC85FD855083A7
:100A4000EE85FF854083188EEC89FD891083EA8945
:100A5000FB89808180618083EA89FB89808188604D
:100A60008083EA89FB89808180688083EA89FB89A9
:100A700080818F7D8083DF91CF911F91FF90EF90D8
:100A8000DF90CF9008951F920F920FB60F9211240E
:100A90002F938F939F93EF93FF93E091DB01F0915E
:100AA000DC018081E091E101F091E20182FD12C060
:100AB00090818091E4018F5F8F732091E50182170F
:100AC00051F0E091E401F0E0E553FE4F958F809303
:100AD000E40101C08081FF91EF919F918F912F914F
:100AE0000F900FBE0F901F9018951F920F920FB688
:100AF0000F9211242F933F934F935F936F937F93A4
:100B00008F939F93AF93BF93EF93FF938BEC91E001
:100B10000E945404FF91EF91BF91AF919F918F91EB
:100B20007F916F915F914F913F912F910F900FBEE9
:100B30000F901F9018958BEC91E00E94180421E013
:100B4000892B09F420E0822F0895EBECF1E0138269
:100B5000128288EE93E0A0E0B0E084839583A683C0
:100B6000B78380E391E09183808385EC90E0958763
:100B7000848784EC90E09787868780EC90E0918B67
:100B8000808B81EC90E0938B828B82EC90E0958B54
:100B9000848B86EC90E0978B868B118E128E138E51
:100BA000148E08958F929F92AF92BF92CF92DF9250
:100BB000EF92FF920F931F93CF93DF937C018B01F2
:100BC0006C0182E0C80ED11C4701E5E08E0E911C3D
:100BD000C0E0D0E0F60161916F014AE050E0C80149
:100BE0000E9442075C016EE2C8010E9485068A0DE0
:100BF0009B1DC80FD91FC814D90461F74AE050E003
:100C0000F7016581C8010E9442078C0F9D1FDF918B
:100C1000CF911F910F91FF90EF90DF90CF90BF90F9
:100C2000AF909F908F900895E8E6F2E080E491E025
:100C30009183808312821382148215820895CF9249
:100C4000DF92EF92FF920F931F93CF93DF936C018C
:100C50007A018B01C0E0D0E0CE15DF0589F0D80124
:100C60006D918D01D601ED91FC910190F081E02D07
:100C7000C6010995892B11F47E0102C02196ECCFA3
:100C8000C701DF91CF911F910F91FF90EF90DF90FF
:100C9000CF9008956115710579F0FB010190002056
:100CA000E9F73197AF01461B570BDC01ED91FC9141
:100CB0000280F381E02D099480E090E00895EF92A6
:100CC000FF920F931F93CF93DF938C017B01C0E0C2
:100CD000D0E0F701EC0FFD1F6491662361F0D801AD
:100CE000ED91FC910190F081E02DC8010995892BCF
:100CF00011F02196EECFCE01DF91CF911F910F9190
:100D0000FF90EF9008950C944A06DC01ED91FC9160
:100D10000190F081E02D099462E471E00C944A06A0
:100D20000F931F93CF93DF93EC010E945F068C011A
:100D3000CE010E948C06800F911FDF91CF911F91F1
:100D40000F9108954F925F926F927F92EF92FF9270
:100D50000F931F93CF93DF93CDB7DEB7A1970FB655
:100D6000F894DEBF0FBECDBF7C01FA01CB0119A202
:100D7000223008F42AE08E010F5D1F4F422E512CC5
:100D8000612C712CBF01A30192010E94AE0EF901EA
:100D9000CA01015011096A3014F4605D01C0695C38
:100DA000D8016C93232B242B252B61F7B801C701A5
:100DB0000E944A06A1960FB6F894DEBF0FBECDBFC3
:100DC000DF91CF911F910F91FF90EF907F906F90E7
:100DD0005F904F900895CF92DF92EF92FF920F9322
:100DE0001F93CF93DF93EC016A017B01211531053D
:100DF00079F4E881F9810190F081E02D642FDF9191
:100E0000CF911F910F91FF90EF90DF90CF900994B9
:100E10002A303105E9F477FF1AC06DE20E94850699
:100E20008C0144275527BA014C195D096E097F09C9
:100E30002AE0CE010E94A206800F911FDF91CF9180
:100E40001F910F91FF90EF90DF90CF9008952AE0CF
:100E5000B701A601CE01DF91CF911F910F91FF90B5
:100E6000EF90DF90CF900C94A2062115310541F44C
:100E7000DC01ED91FC910190F081E02D642F09944B
:100E80000C94A2069A01462F50E060E070E00C94AA
:100E90003507813039F018F0823051F00895109202
:100EA0006E00089580916F008D7F80936F0008958C
:100EB000809170008D7F8093700081E08093B000FE
:100EC0008091B100887F84608093B1001092B3005C
:100ED0000895CF93C82F80910B018C1307C0E7EBC7
:100EE000F0E0E4918FEF80930B0101C0EFEF8E2FC4
:100EF0000E94490760E08C2FCF910C949D091F92AE
:100F00000F920FB60F9211242F933F934F935F933D
:100F10006F937F938F939F93AF93BF93EF93FF93C1
:100F20008091710290917202A0917302B09174024B
:100F3000892B8A2B8B2B51F180916E02E0916F02ED
:100F4000F091700290818927808380917102909145
:100F50007202A0917302B0917402181619061A0653
:100F60001B06C4F48091710290917202A0917302E9
:100F7000B09174020197A109B10980937102909315
:100F80007202A0937302B093740204C080910B01AB
:100F90000E946907FF91EF91BF91AF919F918F914F
:100FA0007F916F915F914F913F912F910F900FBE65
:100FB0000F901F90189508951F920F920FB60F92E1
:100FC00011242F933F934F935F936F937F938F934E
:100FD0009F93AF93BF93EF93FF93E0910C01F09138
:100FE0000D010995FF91EF91BF91AF919F918F9165
:100FF0007F916F915F914F913F912F910F900FBE15
:101000000F901F9018951F920F920FB60F921124F8
:101010002F933F934F935F936F937F938F939F9300
:10102000AF93BF93EF93FF93E0910E01F0910F0107
:101030000995FF91EF91BF91AF919F918F917F9112
:101040006F915F914F913F912F910F900FBE0F9035
:101050001F901895089508950E94FD080E942B087E
:101060000E944002C6E4D4E00E94FF022097E1F310
:101070000E944604F9CF1F920F920FB60F921124CF
:101080002F933F938F939F93AF93BF93809176025B
:1010900090917702A0917802B09179023091750217
:1010A00023E0230F2D3720F40196A11DB11D05C0AB
:1010B00026E8230F0296A11DB11D2093750280938F
:1010C000760290937702A0937802B0937902809190
:1010D0007A0290917B02A0917C02B0917D020196F0
:1010E000A11DB11D80937A0290937B02A0937C0294
:1010F000B0937D02BF91AF919F918F913F912F91BE
:101100000F900FBE0F901F9018952FB7F894609115
:1011100076027091770280917802909179022FBFC8
:1011200008953FB7F89480917A0290917B02A09144
:101130007C02B0917D0226B5A89B05C02F3F19F017
:101140000196A11DB11D3FBFBA2FA92F982F882747
:10115000820F911DA11DB11DBC01CD0142E0660FA2
:10116000771F881F991F4A95D1F708958F929F92F4
:10117000AF92BF92CF92DF92EF92FF926B017C0110
:101180000E9491084B015C01C114D104E104F104F7
:1011900001F10E942A080E949108DC01CB01881904
:1011A0009909AA09BB09883E9340A105B10560F3DE
:1011B00021E0C21AD108E108F10888EE880E83E028
:1011C000981EA11CB11CC114D104E104F10419F74B
:1011D000DBCFFF90EF90DF90CF90BF90AF909F90CC
:1011E0008F9008958230910538F0880F991F880FED
:1011F000991F05970197F1F70895789484B5826057
:1012000084BD84B5816084BD85B5826085BD85B5AA
:10121000816085BDEEE6F0E0808181608083E1E859
:10122000F0E0108280818260808380818160808391
:10123000E0E8F0E0808181608083E1EBF0E0808194
:1012400084608083E0EBF0E0808181608083EAE766
:10125000F0E08081846080838081826080838081EF
:10126000816080838081806880831092C1000895AE
:10127000833081F028F4813099F08230A1F0089514
:101280008730A9F08830B9F08430D1F480918000A3
:101290008F7D03C0809180008F77809380000895B8
:1012A00084B58F7702C084B58F7D84BD0895809109
:1012B000B0008F7703C08091B0008F7D8093B00025
:1012C0000895CF93DF9390E0FC01E453FF4F249106
:1012D000FC01E052FF4F8491882361F190E0880F78
:1012E000991FFC01E250FF4FC591D491FC01EC50D5
:1012F000FF4FA591B491611109C09FB7F8948881FF
:10130000209582238883EC912E230BC0623061F4F8
:101310009FB7F8943881822F809583238883EC913E
:101320002E2B2C939FBF06C08FB7F894E8812E2BED
:1013300028838FBFDF91CF9108951F93CF93DF93C1
:10134000282F30E0F901E854FF4F8491F901E4536C
:10135000FF4FD491F901E052FF4FC491CC23C9F063
:10136000162F81110E943809EC2FF0E0EE0FFF1FBD
:10137000EC50FF4FA591B4918FB7F894111105C0AF
:101380009C91ED2FE095E92302C0EC91ED2BEC93BD
:101390008FBFDF91CF911F910895CF93DF93EC0121
:1013A00060E08E810E949D0981E090E00E94F20839
:1013B00061E08E810E949D0981E090E00E94F20828
:1013C00060E08E810E949D0984E690E0DF91CF91DC
:1013D0000C94F208CF92DF92EF92FF920F931F933B
:1013E000CF93DF937C016C0187E0C80ED11CC0E075
:1013F000D0E0062F10E0B8010C2E02C0759567955D
:101400000A94E2F76170F60181916F010E949D09D3
:101410002196C430D10579F7C701DF91CF911F9193
:101420000F91FF90EF90DF90CF900C94CD09CF9269
:10143000DF92EF92FF920F931F93CF93DF937C0184
:101440006C0187E0C80ED11CC0E0D0E0062F10E090
:10145000B8010C2E02C0759567950A94E2F7617089
:10146000F60181916F010E949D092196C830D10536
:1014700079F7C701DF91CF911F910F91FF90EF9006
:10148000DF90CF900C94CD091F93CF93DF93EC01A5
:10149000162F642F8C810E949D098D818F3F19F03A
:1014A00060E00E949D098F85612F84FF06C0CE01F8
:1014B000DF91CF911F910C94170A70E084E075952D
:1014C00067958A95E1F7CE010E94EA09612FCE0166
:1014D000DF91CF911F910C94EA0940E00C94440AEB
:1014E00061E00E946D0A80ED97E00C94F208FC0127
:1014F000443008F043E08389481710F04FEF480F5D
:10150000DF01A40FB11D54969C91690F6068CF0153
:101510000C946D0AFC016089262F2460208B6C607E
:101520000C946D0AEF92FF920F931F93CF93DF936A
:10153000EC01423018F08F8588608F874B8B1C8AB6
:1015400080E48D8B6E8B70E0605C7F4F6F8B22230D
:1015500029F0413019F48F8584608F8761E08C8198
:101560000E9461098D818F3F19F061E00E9461093D
:1015700061E08E810E9461097E0187E0E80EF11C26
:1015800000E010E08F8584FD03C084E090E002C09D
:1015900088E090E0081719074CF461E0F7018191A9
:1015A0007F010E9461090F5F1F4FECCF80E593EC34
:1015B0000E94F20860E08C810E949D0960E08E81AB
:1015C0000E949D098D818F3F19F060E00E949D0966
:1015D0006F8564FD1DC063E0CE010E94EA0984E9C5
:1015E00091E10E94F20863E0CE010E94EA0984E9D9
:1015F00091E10E94F20863E0CE010E94EA0986E9C7
:1016000090E00E94F20862E0CE010E94EA0916C052
:101610006062CE010E946D0A84E991E10E94F208A5
:101620006F856062CE010E946D0A86E990E00E949B
:10163000F2086F856062CE010E946D0A6F8560625C
:10164000CE010E946D0A84E0888BCE010E948A0A36
:10165000CE010E94700A82E0898B66E0CE01DF91A4
:10166000CF911F910F91FF90EF900C946D0ACF9244
:10167000EF920F93FC011382128285E591E0918332
:10168000808364838FEF8583468327830087E18689
:10169000C2861386148615861686178620E041E0DA
:1016A00060E1CF010F91EF90CF900C94920A41E04E
:1016B0000E94440A81E090E008958091AE0290E09B
:1016C0002091AF02821B910908959091AF02809101
:1016D000AE02981750F4E92FF0E0E055FD4F20815D
:1016E00030E09F5F9093AF0202C02FEF3FEFC90140
:1016F0000895E091AF028091AE02E81730F4F0E077
:10170000E055FD4F808190E008958FEF9FEF0895A1
:101710000895CF92DF92EF92FF920F931F93CF9392
:10172000DF937C01262F972F8A0180918A028823DC
:1017300091F0C62FD72F6E01C40ED51ECC15DD0536
:1017400071F06991D701ED91FC910190F081E02D4C
:10175000C7010995F3CF642F822F0E94490DC8015C
:10176000DF91CF911F910F91FF90EF90DF90CF907D
:101770000895CF93DF931F92CDB7DEB76983209191
:101780008A022223D1F020918B02203240F021E006
:1017900030E0FC013383228380E090E015C080912B
:1017A0008C02E82FF0E0E357FD4F998190838F5F23
:1017B00080938C0280938B0205C061E0CE0101967C
:1017C0000E94490D81E090E00F90DF91CF91089544
:1017D000FC011382128288EE93E0A0E0B0E08483E3
:1017E0009583A683B7838DE591E0918380830895E7
:1017F0001092AF021092AE0210928C0210928B02E5
:101800000C948D0C81E080938A026093AD0210925B
:101810008C0210928B0208950F93062F21E04091C5
:101820008B026DE872E08091AD020E94F30C109281
:101830008C0210928B0210928A020F9108954F929F
:101840005F926F927F92AF92BF92CF92EF92FF9290
:101850000F931F93CF93DF935C01F62ED42F2801B3
:101860003901EE2021F10E94020CCE2DC43008F087
:10187000C3E0C150C0F0D501ED91FC91B8E0CB9F21
:10188000C0011124A301920104C0569547953795D4
:1018900027958A95D2F7CA01B9010190F081E02D10
:1018A000C5010995E6CF60E0C5010E940C0C4D2FE3
:1018B000D13208F040E22C2D60EB72E08F2D0E94B7
:1018C000AB0C1092AF028093AE02DF91CF911F91CB
:1018D0000F91FF90EF90CF90BF90AF907F906F905F
:1018E0005F904F900895CF92EF920F931F93C22E67
:1018F000E12C00E010E098010E941F0C1F910F9155
:10190000EF90CF90089521E00C94730C61E00C945B
:101910000C0C8EE792E00C94E80B10923D0381E0F2
:1019200080933B0310923A0361E082E10E949D099B
:1019300061E083E10E949D09E9EBF0E080818E7F08
:10194000808380818D7F808388E48093B80085E4E4
:101950008093BC000895413208F043C090913D034C
:101960009111FCCF91E090933D0320933B032FEF27
:101970002093D00210921503240F20931403909308
:101980003C0390913C03880F892B80933C0380910A
:101990003A03813061F410923A0380913C038093C2
:1019A000BB008091BC0083FDF8CF85EC01C085EEC3
:1019B0008093BC0080913D038130E1F38091150359
:1019C000841710F44091150326E133E0FB01D9019F
:1019D0008A2F821B841718F48D918193F9CF842F5D
:1019E000089580E008950F93413208F04AC0909125
:1019F0003D039111FCCF32E030933D0300933B0354
:101A00003FEF3093D0021092150340931403FB0173
:101A100066E173E0DB013A2F361B341718F431917D
:101A20003D93F9CF10923C0330913C03880F832BF8
:101A300080933C0380913A03813061F410923A0321
:101A400080913C038093BB008091BC0083FDF8CF64
:101A500085EC01C085EE8093BC00222321F08091AB
:101A60003D038230D1F38091D0028F3F79F0809195
:101A7000D002803241F08091D002803331F094E086
:101A800005C091E003C092E001C093E0892F0F915F
:101A900008954091F202262F30E0240F311D2132AB
:101AA0003105DCF420913D032430C9F4FC0180E0D1
:101AB00090E0861758F43091F2022191DC01AC508D
:101AC000BD4FA30FB11D2C930196F3CF8091F2026D
:101AD000680F6093F20280E0089581E0089582E04B
:101AE000089585ED8093BC008091BC0084FDFCCFFF
:101AF00010923D03089585EC8093BC0010923D0345
:101B000008951F920F920FB60F9211242F933F93B7
:101B10004F935F936F937F938F939F93AF93BF93F5
:101B2000EF93FF938091B900887F803609F49EC0BF
:101B300078F5883209F45DC090F4803109F456C01C
:101B400038F4882309F4F5C0883009F44FC0F5C093
:101B5000883109F44EC0803209F45FC0EEC0803491
:101B600009F46AC058F4803309F457C0883309F087
:101B7000E4C08093D0020E947B0DDFC0803509F461
:101B80004FC0883509F45DC0883409F0D6C0D3C091
:101B9000883909F4C4C0A8F4883709F467C038F458
:101BA000883609F463C0803709F460C0C6C088383D
:101BB00009F4B5C0803909F45FC0803809F0BDC0B0
:101BC0005BC0803B09F483C038F4803A09F466C0F6
:101BD000883A09F47CC0B1C0803C09F4A4C0883CB8
:101BE00009F4A1C0883B09F487C0A7C080913C03D9
:101BF00010C09091150380911403981770F5E0912F
:101C0000150381E08E0F80931503F0E0EA5EFC4F30
:101C100080818093BB0085EC83C08093D0028BC011
:101C2000E091150381E08E0F809315038091BB0036
:101C3000F0E0EA5EFC4F80839091150380911403DD
:101C40006BC0E091150381E08E0F809315038091A6
:101C5000BB00F0E0EA5EFC4F808380913B03811182
:101C60006AC081E080933A0384EA5EC083E0809397
:101C70003D031092D102CFCF8091D102803208F083
:101C80004EC0E091D10281E08E0F8093D10280910D
:101C9000BB00F0E0EE52FD4F8083BDCF0E947B0D74
:101CA0008091D102803230F4E091D102F0E0EE5226
:101CB000FD4F10826091D10270E0E0913603F09107
:101CC000370382ED92E009951092D10236C084E08C
:101CD00080933D031092F3021092F202E0913803D8
:101CE000F091390309958091F202811105C081E0DC
:101CF0008093F2021092F402E091F30281E08E0FE1
:101D00008093F302F0E0EC50FD4F80818093BB00A4
:101D10009091F3028091F202981708F47CCF85E845
:101D20008093BC000AC085EC8093BC0010923D03F8
:101D300004C01092D0020E94710DFF91EF91BF91EB
:101D4000AF919F918F917F916F915F914F913F9153
:101D50002F910F900FBE0F901F901895A1E21A2E91
:101D6000AA1BBB1BFD010DC0AA1FBB1FEE1FFF1F3F
:101D7000A217B307E407F50720F0A21BB30BE40B8F
:101D8000F50B661F771F881F991F1A9469F76095D6
:101D90007095809590959B01AC01BD01CF01089590
:101DA000052E97FB1EF400940E94E70E57FD07D006
:101DB0000E94AE0E07FC03D04EF40C94E70E509533
:101DC0004095309521953F4F4F4F5F4F0895909527
:101DD0008095709561957F4F8F4F9F4F08950E941A
:101DE000000FA59F900DB49F900DA49F800D911D95
:101DF00011240895EE0FFF1F0590F491E02D099432
:101E0000A29FB001B39FC001A39F700D811D11243B
:101E1000911DB29F700D811D1124911D0895AEE09A
:101E2000B0E0E5E1FFE00C94CB110D891E898F89AC
:101E3000988D26E02C831A83098397FF02C080E0E7
:101E400090E801979E838D83AE01455E5F4F698D5B
:101E50007A8DCE0101960E943F0F4D815E8157FD24
:101E60000AC02F813885421753070CF49A01F801F4
:101E7000E20FF31F10822E96E4E00C94E711ACE021
:101E8000B0E0E5E4FFE00C94BD117C016B018A0138
:101E9000FC0117821682838181FFBDC1CE010196AC
:101EA0004C01F7019381F60193FD859193FF819198
:101EB0006F01882309F4ABC1853239F493FD859114
:101EC00093FF81916F01853229F4B70190E00E9460
:101ED0002711E7CF512C312C20E02032A0F48B3297
:101EE00069F030F4803259F0833269F420612CC0FB
:101EF0008D3239F0803339F4216026C022602460AD
:101F000023C0286021C027FD27C030ED380F3A30AC
:101F100078F426FF06C0FAE05F9E300D1124532EA0
:101F200013C08AE0389E300D1124332E20620CC07D
:101F30008E3221F426FD6BC1206406C08C3611F46C
:101F4000206802C0883641F4F60193FD859193FF25
:101F500081916F018111C1CF982F9F7D955493304E
:101F600028F40C5F1F4FFFE3F9830DC0833631F077
:101F7000833771F0833509F05BC022C0F80180819E
:101F800089830E5F1F4F44244394512C540115C084
:101F90003801F2E06F0E711CF801A080B18026FFBD
:101FA00003C0652D70E002C06FEF7FEFC5012C8785
:101FB0000E941C112C0183012C852F77222E17C023
:101FC0003801F2E06F0E711CF801A080B18026FF8D
:101FD00003C0652D70E002C06FEF7FEFC5012C8755
:101FE0000E9411112C012C852068222E830123FCD4
:101FF0001BC0832D90E048165906B0F4B70180E26B
:1020000090E00E9427113A94F4CFF50127FC8591C6
:1020100027FE81915F01B70190E00E9427113110E6
:102020003A94F1E04F1A51084114510471F7E5C098
:10203000843611F0893639F5F80127FF07C0608131
:102040007181828193810C5F1F4F08C06081718113
:10205000072E000C880B990B0E5F1F4F2F76722EE8
:1020600097FF09C090958095709561957F4F8F4F30
:102070009F4F2068722E2AE030E0A4010E945F1179
:10208000A82EA81844C0853729F42F7EB22E2AE046
:1020900030E025C0F22FF97FBF2E8F36C1F018F443
:1020A000883579F0B4C0803719F0883721F0AFC097
:1020B0002F2F2061B22EB4FE0DC08B2D8460B82E60
:1020C00009C024FF0AC09F2F9660B92E06C028E0E1
:1020D00030E005C020E130E002C020E132E0F8014C
:1020E000B7FE07C060817181828193810C5F1F4FB1
:1020F00006C06081718180E090E00E5F1F4FA401F7
:102100000E945F11A82EA818FB2DFF777F2E76FE68
:102110000BC0372D3E7FA51450F474FE0AC072FC2C
:1021200008C0372D3E7E05C0BA2C372D03C0BA2C0F
:1021300001C0B52C34FF0DC0FE01EA0DF11D8081F8
:10214000803311F4397E09C032FF06C0B394B394D2
:1021500004C0832F867809F0B39433FD13C030FF99
:1021600006C05A2CB31418F4530C5B18B32CB314D8
:1021700068F4B70180E290E03C870E942711B39495
:102180003C85F5CFB31410F43B1801C0312C34FF5B
:1021900012C0B70180E390E03C870E9427113C8584
:1021A00032FF17C031FD03C088E790E002C088E528
:1021B00090E0B7010CC0832F867859F031FF02C040
:1021C0008BE201C080E237FD8DE2B70190E00E9412
:1021D0002711A51438F4B70180E390E00E9427117D
:1021E0005A94F7CFAA94F401EA0DF11D8081B7014A
:1021F00090E00E942711A110F5CF332009F451CEB1
:10220000B70180E290E00E9427113A94F6CFF701DF
:102210008681978102C08FEF9FEF2C96E2E10C94AC
:10222000D911FC010590615070400110D8F78095DC
:1022300090958E0F9F1F0895FC0161507040019092
:102240000110D8F7809590958E0F9F1F08950F93DA
:102250001F93CF93DF93FB01238121FD03C08FEFF9
:102260009FEF28C022FF16C0468157812481358107
:102270004217530744F4A081B1819D012F5F3F4F66
:10228000318320838C93268137812F5F3F4F3783A3
:10229000268310C0EB01092F182F0084F185E02D53
:1022A0000995892BE1F68E819F8101969F838E830C
:1022B000812F902FDF91CF911F910F910895FA01F7
:1022C000AA27283051F1203181F1E8946F936E7F75
:1022D0006E5F7F4F8F4F9F4FAF4FB1E03ED0B4E066
:1022E0003CD0670F781F891F9A1FA11D680F791FA7
:1022F0008A1F911DA11D6A0F711D811D911DA11DB8
:1023000020D009F468943F912AE0269F11243019C7
:10231000305D3193DEF6CF010895462F4770405D62
:102320004193B3E00FD0C9F7F6CF462F4F70405D11
:102330004A3318F0495D31FD4052419302D0A9F76C
:10234000EACFB4E0A6959795879577956795BA9566
:10235000C9F700976105710508959B01AC010A2E2C
:1023600006945795479537952795BA95C9F7620F03
:10237000731F841F951FA01D08952F923F924F92A7
:102380005F926F927F928F929F92AF92BF92CF9205
:10239000DF92EF92FF920F931F93CF93DF93CDB70E
:1023A000DEB7CA1BDB0B0FB6F894DEBF0FBECDBF86
:1023B00009942A88398848885F846E847D848C8457
:1023C0009B84AA84B984C884DF80EE80FD800C8160
:1023D0001B81AA81B981CE0FD11D0FB6F894DEBF43
:0C23E0000FBECDBFED010895F894FFCFB3
:1023EC0000003E0380000100000077FFDB07DB07E5
:1023FC0054454D503A2563256C642E256C6443007E
:10240C0032303233303030303030300000000000A9
:10241C0097041F06180432042404750400000000FD
:10242C00D2050D0A006E616E00696E66006F7666ED
:10243C000000000000570B1F0600000000B90B89BC
:0A244C000B5D0B650B790B880B008C
:00000001FF
